:100000000C9444010C9461010C9461010C94610105
:100010000C9461010C949F010C9461010C9461019A
:100020000C9461010C9461010C9461010C946101C8
:100030000C9461010C9461010C9461010C946101B8
:100040000C946F0B0C9461010C9461010C94610190
:100050000C94900A0C944E0A0C9461010C9461016A
:100060000C9461010C9461010C9461010C94610188
:100070000C9461010C9461010C94610120202020FA
:100080002020202020202020202020202020202070
:100090002020202020202020200020202020202080
:1000A0002020202020200050726573732061206280
:1000B0007574746F6E20746F20636F6E74696E75E3
:1000C00065004C415020434F4D504C455445005025
:1000D00072657373206120627574746F6E20746F23
:1000E00020737461727420616761696E0047414DCD
:1000F00045204F564552202020002020202020203F
:1001000020202020202020202020202020202020EF
:1001100020202020202000202020202020202020FF
:10012000202020202020202020202020200050726D
:10013000657373206120627574746F6E20746F2014
:10014000636F6E74696E756520202000596F75208D
:10015000637261736865642020202020004353533C
:1001600045323031302F373230312070726F6A654E
:100170006374206279204A756C697573204D6979C2
:10018000756D6F0052616C6C79526163657200FA33
:1001900001F701F301EF01EB01E701E301DF01DB0F
:1001A00001D7016902650261025D025902550251DF
:1001B000024D024A02460242023E02390235023133
:1001C000022D022802240220021B02170212020D35
:1001D0000208020302FE016492927D6C92926D808D
:1001E0009EA0C17C92924DE4A2A29D182848FF4493
:1001F00092926D468A926342FE037C92A27D868A29
:1002000092A2C3E0100E10E1C6281028C7FC021C01
:1002100002FDF8040204F9FC0202FD8080FE8081E8
:100220006492924DFE9098677C828A7C03FE909047
:10023000617C82827DFE2010FFFE403040FFFE0286
:100240000203FE1028C7040202FD82FE83FE101086
:10025000FF7C82925DFE909081FE929283FE82826C
:100260007D7C828245FE92926D7E90907F1B5B3FEB
:1002700032356C001B5B25646D001B5B324A001B32
:100280005B25643B2564480011241FBECFEFD8E0F6
:10029000DEBFCDBF11E0A0E0B1E0E6E3FFE102C0C8
:1002A00005900D92A23AB107D9F722E0A2EAB1E097
:1002B00001C01D92A03FB207E1F70E948C080C9488
:1002C000990F0C940000E8E6F0E080818260808362
:1002D000D99AECE6F0E080818F6080831092A201D1
:1002E00008958091A201181644F58091A3016FB77B
:1002F0006078F8949091A2019230B4F021E030E05F
:1003000091E0F901ED55FE4F4081F901EE55FE4FA8
:1003100040839F5F292F30E04091A201552747FD80
:100320005095241735076CF39091A201915090934A
:10033000A201662319F0789408958FEF08951F9213
:100340000F920FB60F9211242F933F934F935F9309
:100350006F937F938F939F93EF93FF9373B17F700E
:1003600080E090E0472F50E02091A201243004F576
:100370009A01082E02C0359527950A94E2F720FFCE
:1003800017C02091A70130E0082E02C035952795AF
:100390000A94E2F720FD0CC0E091A20121E02E0FAB
:1003A0002093A201FF27E7FDF095ED55FE4F8083D6
:1003B000019684309105C1F67093A701FF91EF91EA
:1003C0009F918F917F916F915F914F913F912F916D
:1003D0000F900FBE0F901F90189540E06091AD01F7
:1003E0008EE00E94060440E06091AD018DE00E9425
:1003F00006040895CF93DF93CDB7DEB760970FB6AD
:10040000F894DEBF0FBECDBFE091AA01E80F11F056
:10041000EF3799F4FE0139969E012F5E3F4F9FEF13
:100420009193E217F307E1F7BE01675F7F4F9FE00B
:10043000981B892F0E94200425C0EF71F0E0E95D30
:10044000FE4F6081FE01319620E030E070E091E2E5
:10045000AB01022E02C0559547950A94E2F740FF82
:1004600002C0908301C010822F5F3F4F3196283029
:10047000310571F7BE016F5F7F4F9FE0981B892F99
:100480000E94200460960FB6F894DEBF0FBECDBF69
:10049000DF91CF9108950E94240CDC01CB01837081
:1004A0009927AA27B078BB2354F40197A109B10971
:1004B0008C6F9F6FAF6FBF6F0196A11DB11D813013
:1004C0009105A105B10559F082309105A105B1054D
:1004D00041F0892B8A2B8B2B31F040EF05C04FE088
:1004E00003C04FEF01C045E18091C101882341F075
:1004F0008091BC01803120F46091BA010E94060411
:1005000008950F931F939091AD018091C1018823AD
:10051000F1F08091BC018D508230C8F48091BA0115
:10052000891315C081E090E09093A9018093A80100
:100530001092C10180E18093BC010E94610B609325
:10054000BD017093BE018093BF019093C001809163
:10055000A8019091A901892B09F10E94610B609378
:10056000C2017093C3018093C4019093C5010091AF
:10057000BD011091BE012091BF013091C001DC018D
:10058000CB01801B910BA20BB30B81379741A105C7
:10059000B10520F01092A9011092A8018091A80144
:1005A0001F910F9108950F931F93CF938091AC01EA
:1005B000811102C0C5E101C0CFE00E948102882301
:1005C000D1F08091C2019091C301A091C401B0917A
:1005D000C5010091BD011091BE012091BF01309174
:1005E000C001801B910BA20BB30B803A9F40A10569
:1005F000B10508F4CFEF4C2F6091AD018EE00E9461
:1006000006044C2F6091AD018DE00E940604CF914D
:100610001F910F9108952091AA0130E0F9013196C0
:10062000EF71F078FF27E95DFE4F408150E0082E22
:1006300002C0559547950A94E2F740FF07C00E9413
:10064000810291E08823D9F090E019C0F901329637
:10065000EF71F078FF27E95DFE4F208130E0A901BE
:1006600002C0559547958A95E2F740FF07C00E9462
:10067000810291E0882319F090E001C090E0892F79
:10068000089583E08093AD011092AC011092AB010C
:100690000E94D30208958091AD01882369F00E94E1
:1006A000ED018091AD0181508093AD010E940B035B
:1006B0008093AC010E94D30208958091AD018730F0
:1006C00069F00E94ED018091AD018F5F8093AD01D3
:1006D0000E940B038093AC010E94D3020895809185
:1006E000AC0108958091AB0108958091AA018F5FBC
:1006F0008093AA018D3721F481E08093AB0106C07D
:100700008091AD010E940B038093AC018091BC01EC
:100710008F3028F440E06091BA010E9406040E94E4
:10072000ED010E9443048091BC018F5F8093BC0166
:100730000E94D3028FE00E94FA010895CF930E9495
:100740004A04C0E08C2F0E94FA01CF5FC031D1F77C
:10075000CF9108951092AA010E949E030E94410326
:1007600008950E948102882309F44BC08091C20140
:100770009091C301A091C401B091C5014091BD0108
:100780005091BE016091BF017091C001841B950B17
:10079000A60BB70B813A9F40A105B10590F10E94CD
:1007A000240CDC01CB0181709927AA27B078BB23E8
:1007B00054F40197A109B1098E6F9F6FAF6FBF6F9E
:1007C0000196A11DB11D0097A105B10529F0019762
:1007D000A105B10529F007C08FEF8093BB0103C0CD
:1007E00085E18093BB014091BB016091AD018EE03A
:1007F0000E9406044091BB016091AD018DE00E9412
:100800000604089580E80E94E30A08951F93CF9399
:10081000DF93D82F162FC42F81E00E940B0B177087
:1008200080E1189FB00111248D2F8F70862B0E94BC
:100830000B0B8C2F0E940B0BDF91CF911F91089512
:100840000F931F93CF93DF93C82F062F172F83E0AB
:100850000E940B0B8C2F8F700E940B0BC02FD12F7F
:1008600010E089910E940B0B1F5F1830D1F7DF91C8
:10087000CF911F910F91089584E00E940B0B82E0AD
:100880000E940B0B089584E00E940B0B81E00E94F4
:100890000B0B08958FE00E940B0B08950E94610BD3
:1008A0007093C9016093C8011092D1011092D001D8
:1008B0001092CB011092CA0108950E9402040E9476
:1008C000630140E060E07BE480E090E00E94F50995
:1008D0000E94490B7894089580E00E94330B0E9497
:1008E0002A0B0E94400B63E083E00E94110B84E816
:1008F00091E09F938F930E94840C65E083E00E94B7
:10090000110B80E20E94330B8DE591E09F938F9352
:100910000E94840C85E20E94330B0E944A048CE3FF
:100920000E94C0080F900F900F900F9087E491E005
:100930000E94C3080DC02FEF80E792E02150804055
:100940009040E1F700C000000E9471018F3FE9F57F
:100950000E94D1088111EFCF0E94240CDC01CB0151
:1009600083709927AA27B078BB2354F40197A10973
:10097000B1098C6F9F6FAF6FBF6F0196A11DB11D45
:1009800081309105A105B105A1F02CF4892B8A2BAA
:100990008B2B59F0CBCF82309105A105B10569F0C1
:1009A0000397A105B10569F0C1CF85E10E94C00898
:1009B000BDCF8FE00E94C008B9CF8FEF0E94C00862
:1009C000B5CF80EF0E94C008B1CF0895CF93DF93D9
:1009D000CDB7DEB7A8970FB6F894DEBF0FBECDBF78
:1009E000809105018F93809104018F938EE591E0B2
:1009F0009F938F93CE0101969F938F930E94A60C95
:100A00000E94C8080E944A040F900F900F900F9008
:100A10000F900F9080910401909105010A972CF49A
:100A2000CE0101960E94C3080EC087E691E00E94A5
:100A3000C30809C02FEF86E791E021508040904025
:100A4000E1F700C000000E94D1088111F3CFA89601
:100A50000FB6F894DEBF0FBECDBFDF91CF910895E2
:100A600061E083E00E94110B809105018F938091DA
:100A700004018F938FE691E09F938F930E94700CF7
:100A800062E083E00E94110B8091CD018F938091F1
:100A9000CC018F9389E791E09F938F930E94700C14
:100AA00063E083E00E94110B0E94B7087F936F936D
:100AB00083E891E09F938F930E94700C64E083E041
:100AC0000E94110B8091CB018F938091CA018F936B
:100AD0008091D1018F938091D0018F9382E991E031
:100AE0009F938F930E94700C8DB79EB742960FB65E
:100AF000F8949EBF0FBE8DBF089581B18F6081B9FC
:100B00000E946F03882359F08091CC019091CD0110
:100B1000009771F101979093CD018093CC01809162
:100B2000CC019091CD018430910521F482B18F6088
:100B300082B921C08330910539F482B1807F82B9B6
:100B400082B1876082B917C08230910539F482B1D1
:100B5000887F82B982B1836082B90DC081309105EE
:100B600029F482B1887F82B9109A05C0892B19F4C3
:100B700082B1887F82B90E94300508958091CC01AE
:100B80009091CD01892BF1F46EE08AE00E94110B67
:100B90008DEE90E09F938F930E94840C6FE08AE02B
:100BA0000E94110B8FEC90E09F938F930E94840C16
:100BB0000E9430050F900F900F900F900E947101CE
:100BC0008F3FE1F30895CF93DF93CDB7DEB7629700
:100BD0000FB6F894DEBF0FBECDBF89E0E5E1F1E0CE
:100BE000DE01119601900D928A95E1F789E0EEE120
:100BF000F1E0DE011A9601900D928A95E1F780915D
:100C00000401909105010197FE01E80FF91F22856B
:100C10002093BC01E1E0F0E0EC0FFD1FE80FF91FAD
:100C200080818093BA0162960FB6F894DEBF0FBE42
:100C3000CDBFDF91CF910895CF93DF9381E090E016
:100C400090930501809304010E94E6040E94AA0388
:100C5000C8E5D2E0D093C701C093C6010E944E04FC
:100C6000D093CF01C093CE0183E090E09093CD016B
:100C70008093CC010E947D050E94E3050E942A0B0F
:100C80000E9499080E9471010E94490A81E08093A4
:100C9000C1012FEF84E39CE0215080409040E1F7B8
:100CA00000C00000DF91CF9108958091CC01909118
:100CB000CD01181619067CF50E94AA038091CE0179
:100CC0009091CF019093C7018093C6016EE08AE0B6
:100CD0000E94110B87E191E09F938F930E94840CF7
:100CE0006FE08AE00E94110B8AEF90E09F938F9350
:100CF0000E94840C0E9471010E94490A2FEF84E334
:100D00009CE0215080409040E1F700C000000F902F
:100D10000F900F900F900E94E305089581E080935B
:100D2000C101809104019091050101969093050104
:100D30008093040109970CF05CC00E94E604809146
:100D4000CE019091CF01885C91099093CF0180935F
:100D5000CE019093C7018093C6018091CC01909100
:100D6000CD01843091052CF401969093CD018093B0
:100D7000CC016EE08AE00E94110B82EC90E09F9320
:100D80008F930E94840C6FE08AE00E94110B87EA27
:100D900090E09F938F930E94840C0E94AA036EE0C0
:100DA0008AE00E94110B8AE990E09F938F930E9442
:100DB000840C6FE08AE00E94110B8CE790E09F9317
:100DC0008F930E94840C2FEF89E698E12150804098
:100DD0009040E1F700C000000E944E040E94E3052D
:100DE0008DB79EB708960FB6F8949EBF0FBE8DBF05
:100DF00008950E94E6040E941C0608952F923F92D7
:100E00004F925F926F927F928F929F92AF92BF921A
:100E1000CF92DF92EF92FF920F931F93CF93DF93C6
:100E200000D0CDB7DEB70E94610B2B013C01212C15
:100E3000312C1982B12C1FEF0F2EF8EECF2EF3E0DC
:100E4000DF2EE12CF12CF02D00E0BA8232C10E949D
:100E50007101B82E2FEF821332C10E94420A8823FB
:100E600009F42FC1EAEEF2E0808191810E94320CF8
:100E7000F981F11103C08B3159F425C12981213049
:100E800019F48B3529F423C19981923009F423C1D7
:100E9000982F9F7D9E3421F40E941C0609834DC02B
:100EA000903509F01DC1EA81EE2329F0F3E0F5BD8C
:100EB00009830A83FEC015BC098321E02A83F9C097
:100EC00093E0B91631F0843421F0912F9F7D9C344A
:100ED00031F40E944B03EFEF2E1A3E0A2EC0BB20C6
:100EE00021F0833411F0923531F40E945D03FFEF5D
:100EF0002F1A3F0A22C021E0B2120FC08091C60112
:100F00009091C701893EE3E09E07BCF48C599F4F46
:100F10009093C7018093C60110C0F2E0BF120DC0CC
:100F20008091C6019091C7018436910534F08456B2
:100F300091099093C7018093C6010E94610B209193
:100F4000C8013091C9014901AA2497FCA094BA2C88
:100F5000681979098A099B09A70196010E94940BD7
:100F60003093D1012093D0010E94610B2091C801E0
:100F70003091C9014901AA2497FCA094BA2C6819A0
:100F800079098A099B09A70196010E94940B24E61E
:100F900030E040E050E00E94940B3093CB0120936E
:100FA000CA010E9430050E94610B5301420125E0F5
:100FB000820E911CA11CB11C681579058A059B0540
:100FC00020F00E944B020E94B1030E94610B4B0172
:100FD0005C010E946F0381113EC08091C601909117
:100FE000C701AA2797FDA095BA2F840D951DA61DB0
:100FF000B71D88169906AA06BB0668F10E947503FC
:1010000086E02816310430F485E090E082199309D7
:101010000E94A2080E9472038823C9F084E690E02F
:101020000E94A208E8E5F2E0F093C701E093C60150
:101030000E948E060E9430050E9471010E94490A9A
:101040000E94610B2B013C01212C312C04C0240196
:101050003501212C312C0E947D058091CC0190918D
:10106000CD01181619062CF50E946F03882309F18B
:101070006EE08AE00E94110B8CE491E09F938F93C5
:101080000E94840C6FE08AE00E94110B8EE291E0D6
:101090009F938F930E94840C15BC0F900F900F901C
:1010A0000F900E9471018F3FE1F383E085BD1FC067
:1010B00009830E946F03882309F4C9CE18C0812FC9
:1010C0000BC0812F09C0F1E0F983812F05C022E018
:1010D0002983812F01C009839A819111EACFF0CE33
:1010E000EA81E111E5CF982F0983812FEFCE0F9090
:1010F0000F90DF91CF911F910F91FF90EF90DF90B4
:10110000CF90BF90AF909F908F907F906F905F90A7
:101110004F903F902F9008950E945D040E946C04B0
:101120000E941C060E94FE060E9455060E94BE05F3
:10113000F9CF1092D2011092D3011092D4011092E3
:10114000D50108954091D2015091D3016091D4010D
:101150007091D501480F591F611D711D4093D20137
:101160005093D3016093D4017093D5010895609199
:10117000D2017091D3018091D4019091D50108954D
:101180008093060108959093B2018093B101089570
:101190001092B4011092B3011092B0011092AF01FD
:1011A00008950F931F93CF93DF93CDB7DEB72897A2
:1011B0000FB6F894DEBF0FBECDBFE091B301F09142
:1011C000B401309781F0149110FF06C01092B40161
:1011D0001092B30100E06BC03196F093B401E0933C
:1011E000B30100E064C0E091AF01F091B00130972D
:1011F00009F449C0CF0101969093B0018093AF01EB
:10120000E081E1110AC01092B0011092AF0180E1BB
:101210008093AE0100E010E04AC08FE98E0F8A3162
:1012200070F4F0E0EE0FFF1FEF51FF4F85919491A6
:101230009093B4018093B30100E010E038C08FEBCD
:101240008E0F8A3170F4F0E0EE0FFF1FEF5DFE4F5E
:10125000859194919093B4018093B30100E010E0E4
:1012600026C080ED8E0F8A3000F5F0E0EE0FFF1FF4
:10127000E15DFE4F859194919093B4018093B30109
:1012800000E010E014C08091B1019091B20101E042
:10129000009709F000E09093B0018093AF011092A5
:1012A000B2011092B10110E002C000E010E00E9413
:1012B0003C0430910601FE013896CE010196212FA3
:1012C000220F220B23232083110F3197E817F907F0
:1012D000B1F71982BE016F5F7F4F8FE00E9420043B
:1012E0008091AE01882319F081508093AE010023D4
:1012F00039F091E08091AE01882319F090E001C0AF
:1013000090E081E0911180E028960FB6F894DEBF5E
:101310000FBECDBFDF91CF911F910F910895CF9355
:10132000C82F8A3019F48DE00E948F092FB72078DA
:1013300002C0222329F19091D7019F3FD1F3F89465
:10134000E091D60181E08E0F8093D601F0E0E85263
:10135000FE4FC0838091D7018F5F8093D70180912A
:10136000D6018F3F11F41092D601E1ECF0E08081BC
:1013700080628083222339F0789480E090E005C079
:1013800081E090E002C080E090E0CF9108958091EC
:10139000E9028823E1F32FB72078F8948091D702EF
:1013A0003091E90290E0831B91095AF4E091D70251
:1013B0008091E902F0E0E81BF109E851FD4F8081DE
:1013C0000AC0E091D7028091E902F0E0E81BF10940
:1013D000E852FD4F80819091E90291509093E9028B
:1013E000222309F0789490E008951092D60110928B
:1013F000D7011092D7021092E9021092E8024093AE
:10140000B501DC01CB01880F991FAA1FBB1F880FF4
:10141000991FAA1FBB1F9C01AD01220F331F441F40
:10142000551F60E072E18AE790E00E94B60BDA0196
:10143000C9010196A11DB11DAC01BD0122F44F5F90
:101440005F4F6F4F7F4FDB01CA01B595A795979509
:1014500087959C01215031093093C5002093C40029
:10146000E1ECF0E088E1808380818068808387E020
:1014700091E09093ED028093EC029093EB028093C5
:10148000EA0208959091E90281E0911101C080E0A3
:1014900008951092D7021092E90208951F920F92B8
:1014A0000FB60F9211242F938F939F93EF93FF9377
:1014B0008091D701882329F18091D6012091D7010D
:1014C00090E0821B91095AF4E091D6018091D701F6
:1014D000F0E0E81BF109E952FD4F80810AC0E0917C
:1014E000D6018091D701F0E0E81BF109E852FE4FE8
:1014F00080819091D70191509093D7018093C6003D
:1015000005C0E1ECF0E080818F7D8083FF91EF9159
:101510009F918F912F910F900FBE0F901F90189554
:101520001F920F920FB60F9211242F933F934F9358
:101530005F936F937F938F939F93AF93BF93CF935B
:10154000EF93FF93C091C6008091B501882349F0C5
:101550008091D7018F3F29F060E070E08C2F0E94CE
:101560008F098091E902803120F081E08093E802C8
:1015700018C0CD3009F4CAE0E091D70281E08E0FA7
:101580008093D702F0E0E852FD4FC0838091E902DA
:101590008F5F8093E9028091D702803111F410921D
:1015A000D702FF91EF91CF91BF91AF919F918F9112
:1015B0007F916F915F914F913F912F910F900FBE4F
:1015C0000F901F90189594B1906B94B92C9A90E558
:1015D0009CBD883021F0803211F0823019F491E006
:1015E0009DBD01C01DBC803269F028F4883071F0C7
:1015F000803161F00EC0803429F0803851F48CB510
:1016000081608CBD8CB582608CBD03C08CB581605F
:101610008CBD2C9808958EBD0DB407FEFDCF8EB500
:101620000895282F332727FD30953F938F93862FDA
:10163000992787FD90959F936F938FE792E09F93F3
:101640008F930E94840C0F900F900F900F900F902B
:101650000F9008958AE792E09F938F930E94840CE5
:101660000F900F9008951F928F9384E792E09F93BD
:101670008F930E94840C0F900F900F900F900895FD
:101680008DE692E09F938F930E94840C0F900F90B1
:1016900008951092B6011092B7011092B8011092FD
:1016A000B90116BC8CE787BD82E084BD83E085BDAF
:1016B000EEE6F0E080818260808385B3827085BB36
:1016C00008952FB7F8946091B6017091B701809199
:1016D000B8019091B90122230CF4789408951F92D7
:1016E0000F920FB60F9211248F939F93AF93BF93D6
:1016F0008091B6019091B701A091B801B091B90164
:101700000196A11DB11D8093B6019093B701A093DE
:10171000B801B093B901BF91AF919F918F910F9094
:101720000FBE0F901F901895A1E21A2EAA1BBB1B8B
:10173000FD010DC0AA1FBB1FEE1FFF1FA217B3079D
:10174000E407F50720F0A21BB30BE40BF50B661FB3
:10175000771F881F991F1A9469F760957095809577
:1017600090959B01AC01BD01CF010895052E97FB1B
:101770001EF400940E94CD0B57FD07D00E94940BDD
:1017800007FC03D04EF40C94CD0B5095409530954A
:1017900021953F4F4F4F5F4F0895909580957095DD
:1017A00061957F4F8F4F9F4F08958F929F92AF9279
:1017B000BF92CF92DF92EF92FF92CF93DF93EC0133
:1017C000688179818A819B81611571058105910507
:1017D00021F464E279ED8BE597E02DE133EF41E010
:1017E00050E00E94B60B49015A019B01AC01A7EAE7
:1017F000B1E40E94400F6B017C01ACEEB4EFA50197
:1018000094010E944E0FC60ED71EE81EF91EF7FE69
:1018100006C081E0C81AD108E10880E8F80AC88249
:10182000D982EA82FB82C701B6019F77DF91CF910F
:10183000FF90EF90DF90CF90BF90AF909F908F90F0
:1018400008950E94D50B089580E091E00E94D50B89
:1018500008956093000170930101809302019093B9
:1018600003010895CF93DF93EC012B8120FF33C058
:1018700026FF0AC02F7B2B838E819F8101969F8339
:101880008E838A8190E029C022FF0FC0E881F98110
:101890008081992787FD9095009719F420622B830A
:1018A0001AC03196F983E8830EC0EA85FB85099555
:1018B00097FF09C02B81019611F480E101C080E2FD
:1018C000822B8B8308C02E813F812F5F3F4F3F8348
:1018D0002E83992702C08FEF9FEFDF91CF9108955C
:1018E000A0E0B0E0E6E7FCE00C94630FFE01359663
:1018F00061917191AF018091EC029091ED020E9493
:10190000C80CE2E00C947F0FA0E0B0E0EAE8FCE055
:101910000C94610FFE013796619171910CEE12E00B
:10192000D8018D919C91DC0113962C91139728601E
:1019300013962C93AF010E94C80CD801ED91FC9135
:101940002381277F2383E4E00C947D0FAEE0B0E099
:10195000ECEAFCE00C94610F0D891E8986E08C8313
:101960001A8309838FEF9FE79E838D83AE01475EC5
:101970005F4F6F89788DCE0101960E94C80CEF8170
:10198000F885E00FF11F10822E96E4E00C947D0F95
:10199000ACE0B0E0EEECFCE00C94530F7C016B018A
:1019A0008A01FC0117821682838181FFBDC1CE01AD
:1019B00001964C01F7019381F60193FD859193FF08
:1019C00081916F01882309F4ABC1853239F493FD0D
:1019D000859193FF81916F01853229F4B70190E0E1
:1019E0000E94B00EE7CF512C312C20E02032A0F421
:1019F0008B3269F030F4803259F0833269F420611F
:101A00002CC08D3239F0803339F4216026C0226039
:101A1000246023C0286021C027FD27C030ED380F87
:101A20003A3078F426FF06C0FAE05F9E300D1124AC
:101A3000532E13C08AE0389E300D1124332E2062BD
:101A40000CC08E3221F426FD6BC1206406C08C369A
:101A500011F4206802C0883641F4F60193FD8591A7
:101A600093FF81916F018111C1CF982F9F7D955474
:101A7000933028F40C5F1F4FFFE3F9830DC08336CA
:101A800031F0833771F0833509F05BC022C0F80173
:101A9000808189830E5F1F4F44244394512C54014D
:101AA00015C03801F2E06F0E711CF801A080B18002
:101AB00026FF03C0652D70E002C06FEF7FEFC50108
:101AC0002C870E94A50E2C0183012C852F77222EB6
:101AD00017C03801F2E06F0E711CF801A080B180D0
:101AE00026FF03C0652D70E002C06FEF7FEFC501D8
:101AF0002C870E949A0E2C012C852068222E8301AF
:101B000023FC1BC0832D90E048165906B0F4B701A2
:101B100080E290E00E94B00E3A94F4CFF50127FCE9
:101B2000859127FE81915F01B70190E00E94B00E80
:101B300031103A94F1E04F1A51084114510471F7F1
:101B4000E5C0843611F0893639F5F80127FF07C062
:101B500060817181828193810C5F1F4F08C0608119
:101B60007181882777FD8095982F0E5F1F4F2F7604
:101B7000B22E97FF09C090958095709561957F4F23
:101B80008F4F9F4F2068B22E2AE030E0A4010E94C0
:101B9000E20EA82EA81844C0853729F42F7EB22E55
:101BA0002AE030E025C0F22FF97FBF2E8F36C1F03A
:101BB00018F4883579F0B4C0803719F0883721F0EF
:101BC000AFC02F2F2061B22EB4FE0DC08B2D8460CC
:101BD000B82E09C024FF0AC09F2F9660B92E06C0F8
:101BE00028E030E005C020E130E002C020E132E032
:101BF000F801B7FE07C060817181828193810C5F1B
:101C00001F4F06C06081718180E090E00E5F1F4F22
:101C1000A4010E94E20EA82EA818FB2DFF77BF2E6C
:101C2000B6FE0BC02B2D2E7FA51450F4B4FE0AC0B7
:101C3000B2FC08C02B2D2E7E05C07A2C2B2D03C0A4
:101C40007A2C01C0752C24FF0DC0FE01EA0DF11D98
:101C50008081803311F4297E09C022FF06C073946D
:101C6000739404C0822F867809F0739423FD13C007
:101C700020FF06C05A2C731418F4530C5718732CF9
:101C8000731468F4B70180E290E02C870E94B00ED4
:101C900073942C85F5CF731410F4371801C0312CD0
:101CA00024FF12C0B70180E390E02C870E94B00EA1
:101CB0002C8522FF17C021FF03C088E590E002C0F9
:101CC00088E790E0B7010CC0822F867859F021FD9B
:101CD00002C080E201C08BE227FD8DE2B70190E0F7
:101CE0000E94B00EA51438F4B70180E390E00E9482
:101CF000B00E5A94F7CFAA94F401EA0DF11D808139
:101D0000B70190E00E94B00EA110F5CF332009F486
:101D100051CEB70180E290E00E94B00E3A94F6CF27
:101D2000F7018681978102C08FEF9FEF2C96E2E149
:101D30000C946F0FFC010590615070400110D8F7B2
:101D4000809590958E0F9F1F0895FC016150704003
:101D500001900110D8F7809590958E0F9F1F0895E0
:101D60000F931F93CF93DF93182F092FEB018B81D4
:101D700081FD03C08FEF9FEF20C082FF10C04E8116
:101D80005F812C813D81421753077CF4E881F98102
:101D90009F012F5F3F4F39832883108306C0E8855A
:101DA000F985812F0995892B29F72E813F812F5F96
:101DB0003F4F3F832E83812F902FDF91CF911F9133
:101DC0000F910895FA01AA27283051F1203181F1AD
:101DD000E8946F936E7F6E5F7F4F8F4F9F4FAF4F33
:101DE000B1E03ED0B4E03CD0670F781F891F9A1F46
:101DF000A11D680F791F8A1F911DA11D6A0F711DFA
:101E0000811D911DA11D20D009F468943F912AE005
:101E1000269F11243019305D3193DEF6CF010895ED
:101E2000462F4770405D4193B3E00FD0C9F7F6CF1E
:101E3000462F4F70405D4A3318F0495D31FD4052E6
:101E4000419302D0A9F7EACFB4E0A695979587957C
:101E500077956795BA95C9F700976105710508955B
:101E60009B01AC010A2E0694579547953795279507
:101E7000BA95C9F7620F731F841F951FA01D08959F
:101E80000E948A0FA59F900DB49F900DA49F800D76
:101E9000911D11240895B7FF0C94400F0E94400F2C
:101EA000821B930B08952F923F924F925F926F92F5
:101EB0007F928F929F92AF92BF92CF92DF92EF92DA
:101EC000FF920F931F93CF93DF93CDB7DEB7CA1B5B
:101ED000DB0B0FB6F894DEBF0FBECDBF09942A8886
:101EE000398848885F846E847D848C849B84AA842E
:101EF000B984C884DF80EE80FD800C811B81AA81BB
:101F0000B981CE0FD11D0FB6F894DEBF0FBECDBF85
:101F1000ED010895A29FB001B39FC001A39F700D72
:101F2000811D1124911DB29F700D811D1124911DE1
:061F30000895F894FFCFB4
:101F36000100000001000F00000003000000008FF8
:101F460009C7090000020404020304020304020490
:101F56000502030303030383878787C3E1F1F1E0E7
:101F6600E0E0C0C1818383818110181C3C383810A1
:101F760010018181C3878752414C4C5952414345D8
:101F860052206279203433353838373031004C6589
:101F960076656C20256400596F752057696E004C74
:101FA6006576656C3A202564004C697665733A203F
:101FB60025640047616D652053636F72653A20257D
:101FC60064004C61702054696D653A2025642E25A5
:021FD6006400A5
:00000001FF
